S01200005465737430332D696E742E7372656397
S113000045C0000060C000005EC000005CC000008D
S11300105AC0000070C100008FC10000AEC10000D2
S113002052C0000050C000004EC000004CC0000090
S11300304AC0000048C0000046C0000044C00000A0
S113004042C0000040C000003EC000003CC00000B0
S11300503AC0000038C0000036C0000034C00000C0
S113006032C0000030C000002EC000002CC00000D0
S11300702AC0000028C0000026C0000024C00000E0
S113008022C0000020C000001EC0000011241FBEBA
S1130090CFEFD0E1DEBFCDBF11E0A0E0B1E0E0ECF6
S11300A0F3E000E00BBF02C007900D92A231B1074C
S11300B0D9F721E0A2E1B1E001C01D92AD31B20750
S11300C0E1F7AED07BC19CCF8BB387608BBB8FED48
S11300D09EE20197F1F700C0000008958BB3887F7A
S11300E08BBB8FED9EE20197F1F700C000000895ED
S11300F025B32F6025BB25B343E050E0481B590BC3
S113010081E090E002C0880F991F4A95E2F780953C
S1130110822385BB62BB08950F931F93CF93DF9314
S11301208C01C0E0D0E00DC0F801EC0FFD1F608130
S1130130CE01DEDF8FED9EE20197F1F700C00000F3
S11301402196C430D10584F3DF91CF911F910F9193
S113015008950F931F93CF93DB01AF70BB278B01DF
S11301609C01689413F8369527951795079516946E
S1130170D1F7F801EF70FF27072F182F292F332706
S1130180A8014F7055278B019C010F2EFCE036957A
S1130190279517950795FA95D1F7F02D98016115D4
S11301A0C0E17C0781059105C8F46F3F71058105A5
S11301B0910509F050F4603171058105910540F015
S11301C021E130E041E150E009C021E130E006C026
S11301D021E130E041E150E0E1E1F0E0A050BF4F27
S11301E08C91A8E1B1E08C93E050FF4F808111968F
S11301F08C931197FA01E050FF4F808112968C93F3
S11302001297F901E050FF4F808113968C93139756
S1130210CD0182DF88E191E0CF911F910F91089584
S1130220CF93DF9300D000D0CDB7DEB78FEF81BB83
S11302308FE084BB87E08ABB80E789BF8AE28ABFFC
S11302408FB780688FBF789419821A821B821C82B0
S11302508091160190911701009719F0019731F0E0
S113026025C019821A821B821C8220C089819A812E
S1130270AB81BC810196A11DB11D89839A83AB8397
S1130280BC8389819A81AB81BC8184369105A105A7
S1130290B10559F419DF2FEF89E698E12150804028
S11302A09040E1F700C0000001C018DF8091140104
S11302B090911501009761F2019799F489819A81CF
S11302C0AB81BC81892B8A2B8B2B59F089819A8134
S11302D0AB81BC810197A109B10989839A83AB835E
S11302E0BC83809112019091130169817A818B8181
S11302F09C812FDFADCF1F920F920FB60F92112466
S11303008F939F938091160190911701019690937A
S1130310170180931601809116019091170103979C
S113032024F010921701109216019F918F910F9053
S11303300FBE0F901F9018951F920F920FB60F9239
S113034011248F939F93809114019091150101962C
S113035090931501809314018091140190911501DB
S1130360039724F010921501109214019F918F911C
S11303700F900FBE0F901F9018951F920F920FB6FB
S11303800F9211248F939F938091120190911301E6
S11303900196909313018093120180911201909120
S11303A01301039724F010921301109212019F91EC
S11303B08F910F900FBE0F901F901895F894FFCF58
S11303C03F065B4F666D7D277F67777C585E79714A
S10503D04000E7
S9030000FC
