:1000000045C0000060C000005EC000005CC0000091
:100010005AC00000B7C10000D6C10000F5C1000001
:1000200052C0000050C000004EC000004CC0000094
:100030004AC0000048C0000046C0000044C00000A4
:1000400004C2000040C000003EC000003CC00000F0
:100050003AC0000038C0000036C0000034C00000C4
:1000600032C0000030C000002EC000002CC00000D4
:100070002AC0000028C0000026C0000024C00000E4
:1000800022C0000020C000001EC0000011241FBEBE
:10009000CFEFD0E1DEBFCDBF11E0A0E0B1E0E0E204
:1000A000F5E000E00BBF02C007900D92A231B1074E
:1000B000D9F721E0A2E1B1E001C01D92A532B2075B
:1000C000E1F7E6D02BC29CCF909305018093040109
:1000D00070930301609302010895E0910201F09191
:1000E000030120812F602083E0910201F091030140
:1000F00023E030E0281B390B81E090E002C0880F3C
:10010000991F2A95E2F78095908189238083E09159
:100110000401F091050160838FE99FE00197F1F7F9
:1001200000C0000008950F931F93CF93DF938C01BD
:10013000C0E0D0E00DC0F801EC0FFD1F6081CE01E2
:10014000CCDF8FE39FE10197F1F700C0000021961B
:100150008091000190910101C817D90764F3DF91E4
:10016000CF911F910F9108954F925F926F927F925E
:100170008F929F92AF92BF92CF92DF92EF92FF92B7
:10018000CF93DF9300D000D0CDB7DEB720E13EE0C3
:1001900040E050E0A1D16B017C010F2EFAE08F2EE0
:1001A000912CA12CB12CF02DA501940195D169833E
:1001B0007A838B839C83CA01B90126E030E040E05A
:1001C00050E08AD12B013C01C701B6012CE330E09D
:1001D00040E050E081D1CA01B901A50194017CD170
:1001E0004B015C01C701B60128E532E040E050E078
:1001F00073D1E981FA81EA5FFE4F8081E0E2F1E0AC
:100200008083D201AA5FBE4F8C918183D401AA5F03
:10021000BE4F8C918283D901AA5FBE4F8C9183839C
:1002200088E5C81682E0D806E104F10478F48CE38E
:10023000C816D104E104F10460F48AE0C816D104C0
:10024000E104F10448F082E090E008C084E090E02E
:1002500005C083E090E002C081E090E0909301014E
:100260008093000180E291E05EDF0F900F900F908D
:100270000F90DF91CF91FF90EF90DF90CF90BF90E4
:10028000AF909F908F907F906F905F904F90089568
:100290008FEF81BB8FE084BB87E08ABB65E370E0B2
:1002A00082E390E011DF80E789BF8AE28ABF87B7E7
:1002B000816087BF84E083BF8FB780688FBF7894E9
:1002C0008091160190911701892B41F410921C0125
:1002D00010921D0110921E0110921F0180911401B5
:1002E000909115018130910599F01CF4892B39F01A
:1002F0003FC08330910501F1049791F139C010920C
:100300001C0110921D0110921E0110921F0130C09D
:1003100080911C0190911D01A0911E01B0911F01BF
:100320000196A11DB11D80931C0190931D01A09306
:100330001E01B0931F011CC080911C0190911D01F2
:10034000A0911E01B0911F010197A109B1098093ED
:100350001C0190931D01A0931E01B0931F0108C0C2
:1003600010921C0110921D0110921E0110921F018B
:1003700060911C0170911D0180911E0190911F01DF
:10038000F3DE9ECF1F920F920FB60F9211248F9320
:100390009F938091160190911701019690931701F8
:1003A000809316018091160190911701039724F014
:1003B00010921701109216019F918F910F900FBE0E
:1003C0000F901F9018951F920F920FB60F92112445
:1003D0008F939F93809114019091150101969093B2
:1003E00015018093140180911401909115010597D6
:1003F00024F010921501109214019F918F910F908B
:100400000FBE0F901F9018951F920F920FB60F926C
:1004100011248F939F938091120190911301019663
:100420009093130180931201809112019091130116
:10043000029724F010921301109212019F918F9154
:100440000F900FBE0F901F9018951F920F920FB62E
:100450000F9211242F938F939F93AF93BF9380910B
:10046000180190911901A0911A01B0911B010196F8
:10047000A11DB11D8093180190931901A0931A0139
:10048000B0931B01883E9340A105B105D8F080913F
:100490001C0190911D01A0911E01B0911F010196B8
:1004A000A11DB11D80931C0190931D01A0931E01FD
:1004B000B0931F01109218011092190110921A01A5
:1004C00010921B01BF91AF919F918F912F910F902F
:1004D0000FBE0F901F901895A1E21A2EAA1BBB1BEE
:1004E000FD010DC0AA1FBB1FEE1FFF1FA217B30700
:1004F000E407F50720F0A21BB30BE40BF50B661F16
:10050000771F881F991F1A9469F7609570958095D9
:1005100090959B01AC01BD01CF010895F894FFCFE8
:100520000400350032003F065B4F666D7D277F6714
:020530000000C9
:00000001FF
