:1000000045C0000060C000005EC000005CC0000091
:100010005AC0000058C0000056C0000054C0000084
:1000200052C0000050C000004EC000004CC0000094
:100030004AC0000048C0000028C1000044C00000C1
:1000400042C0000040C000003EC000003CC00000B4
:100050003AC0000038C0000036C0000034C00000C4
:1000600032C0000030C000002EC000002CC00000D4
:100070002AC0000028C0000026C0000024C00000E4
:1000800022C0000020C000001EC0000011241FBEBE
:10009000CFEFD0E1DEBFCDBF11E0A0E0B1E0E8EEF0
:1000A000F2E000E00BBF02C007900D92A831B1074B
:1000B000D9F721E0A8E1B1E001C01D92A532B20755
:1000C000E1F7B3D00FC19CCF909305018093040159
:1000D00070930301609302010895E0910201F09191
:1000E000030120812F602083E0910201F091030140
:1000F00023E030E0281B390B81E090E002C0880F3C
:10010000991F2A95E2F78095908189238083E09159
:100110000401F091050160838FE99FE00197F1F7F9
:1001200000C0000008950F931F93CF93DF938C01BD
:10013000C0E0D0E00DC0F801EC0FFD1F6081CE01E2
:10014000CCDF8FE19EE40197F1F700C0000021961B
:100150008091000190910101C817D90764F3DF91E4
:10016000CF911F910F9108950F931F93CF93DF931A
:10017000EB01CF70DD278B019C01689413F8369555
:100180002795179507951694D1F7D801AF70BB271F
:10019000072F182F292F3327F801EF70FF278B0126
:1001A0009C010F2EFCE03695279517950795FA953B
:1001B000D1F7F02DCA5FDE4F4881C0E2D1E048831D
:1001C000AA5FBE4F4C914983EA5FFE4F40814A834C
:1001D000F801EA5FFE4F20812B83611520E1720751
:1001E0008105910570F46F3F71058105910509F056
:1001F00058F4603171058105910548F082E090E086
:1002000008C084E090E005C083E090E002C081E097
:1002100090E0909301018093000180E291E083DF00
:10022000DF91CF911F910F9108958FEF81BB8FE0E8
:1002300084BB65E370E082E390E046DF87B78460CB
:1002400087BF84E08EBD8FB780688FBF7894809120
:100250001C0190911D01A0911E01B0911F010097FA
:10026000A140B10540F010921C0110921D011092A6
:100270001E0110921F0160911C0170911D0180915F
:100280001E0190911F0170DFE2CF1F920F920FB6F7
:100290000F9211248F939F93AF93BF9380911C0172
:1002A00090911D01A0911E01B0911F010196A11D09
:1002B000B11D80931C0190931D01A0931E01B0936A
:1002C0001F01109218011092190110921A01109238
:1002D0001B01BF91AF919F918F910F900FBE0F9017
:0802E0001F901895F894FFCF60
:1002E8000400350032003F065B4F666D7D277F674F
:0802F800777C585E797140002B
:00000001FF
