S01400005465737430342D54696D65722E73726563DE
S113000045C0000060C000005EC000005CC000008D
S11300105AC0000058C0000056C0000054C0000080
S113002052C0000050C000004EC000004CC0000090
S11300304AC0000048C0000028C1000044C00000BD
S113004042C0000040C000003EC000003CC00000B0
S11300503AC0000038C0000036C0000034C00000C0
S113006032C0000030C000002EC000002CC00000D0
S11300702AC0000028C0000026C0000024C00000E0
S113008022C0000020C000001EC0000011241FBEBA
S1130090CFEFD0E1DEBFCDBF11E0A0E0B1E0E8EEEC
S11300A0F2E000E00BBF02C007900D92A631B10749
S11300B0D9F721E0A6E1B1E001C01D92A332B20755
S11300C0E1F7B3D00FC19CCF909303018093020159
S11300D070930101609300010895E0910001F09193
S11300E0010120812F602083E0910001F091010142
S11300F023E030E0281B390B81E090E002C0880F38
S1130100991F2A95E2F78095908189238083E09155
S11301100201F091030160838FE99FE00197F1F7F9
S113012000C0000008950F931F93CF93DF938C01B9
S1130130C0E0D0E00DC0F801EC0FFD1F6081CE01DE
S1130140CCDF8FE19EE40197F1F700C00000219617
S1130150C430D10584F3DF91CF911F910F9108959D
S11301600F931F93CF93DB01AF70BB278B019C01CF
S1130170689413F836952795179507951694D1F733
S1130180F801EF70FF27072F182F292F3327A80115
S11301904F7055278B019C010F2EFCE03695279557
S11301A017950795FA95D1F7F02D98016115C0E1DF
S11301B07C0781059105C8F46F3F710581059105A0
S11301C009F050F4603171058105910540F021E199
S11301D030E041E150E009C021E130E006C021E116
S11301E030E041E150E0E1E1F0E0AC5FBE4F8C91E2
S11301F0AEE1B1E08C93EC5FFE4F808111968C935D
S11302001197FA01EC5FFE4F808112968C9312973E
S1130210F901EC5FFE4F808113968C931397CD0107
S113022082DFCF911F910F9108958FEF81BB8FE0F3
S113023084BB65E370E082E390E046DF87B78460C7
S113024087BF84E08EBD8FB780688FBF789480911C
S11302501A0190911B01A0911C01B0911D010097FE
S1130260A140B10540F010921A0110921B011092A6
S11302701C0110921D0160911A0170911B01809163
S11302801C0190911D016CDFE2CF1F920F920FB6FB
S11302900F9211248F939F93AF93BF9380911A0170
S11302A090911B01A0911C01B0911D010196A11D0B
S11302B0B11D80931A0190931B01A0931C01B0936C
S11302C01D0110921601109217011092180110923C
S11302D01901BF91AF919F918F910F900FBE0F9015
S10B02E01F901895F894FFCF5C
S11302E8350032003F065B4F666D7D277F67777C5C
S10902F8585E797140001C
S9030000FC
