S01200005465737430362D4144432E7372656317
S113000045C0000060C000005EC000005CC000008D
S11300105AC0000058C0000056C0000054C0000080
S113002052C0000050C000004EC000004CC0000090
S11300304AC0000048C0000046C0000044C00000A0
S113004042C0000040C000003EC000003CC00000B0
S11300503AC0000038C0000036C0000034C00000C0
S113006032C0000030C000002EC000002CC00000D0
S11300702AC0000028C0000026C0000024C00000E0
S113008022C0000020C000001EC0000011241FBEBA
S1130090CFEFD0E1DEBFCDBF11E0A0E0B1E0E4E8F6
S11300A0F3E000E00BBF02C007900D92A431B1074A
S11300B0D9F721E0A4E1B1E001C01D92AD31B2074E
S11300C0E1F718D05DC19CCF27B1206427B926B1D0
S11300D0276026B926B1206826B926B1206226B940
S11300E027B1207E822B97B1892B87B986B1806492
S11300F086B908958FEF81BB8FE084BB65E370E020
S113010082E390E016D081E090E01CD081E090E0A2
S1130110DBDF349BFECF64B175B180E090E0609387
S1130120140170931501809316019093170177D0F1
S1130130F0CF9093070180930601709305016093BB
S11301400401089590930301809302010895AC0182
S11301508091020190910301892B01F1E091040146
S1130160F091050180818F608083E0910401F0911A
S1130170050123E030E0241B350B81E090E002C050
S1130180880F991F2A95E2F78095908189238083AF
S1130190E0910601F091070160830895E091040164
S11301A0F09105019081907F9083E0910401F0919A
S11301B0050123E030E0241B350B81E090E002C010
S11301C0880F991F2A95E2F79081892B8083E0910B
S11301D00601F09107016095608308950F931F93C2
S11301E0CF93DF938C01C0E0D0E00DC0F801EC0F99
S11301F0FD1F6081CE01ABDF8FE19EE40197F1F733
S113020000C0000021968091000190910101C8175F
S1130210D90764F3DF91CF911F910F9108954F9205
S11302205F926F927F928F929F92AF92BF92CF9282
S1130230DF92EF92FF92CF93DF9300D000D0CDB73F
S1130240DEB76B017C010F2EFAE08F2E912CA12CCE
S1130250B12CF02DA501940171D069837A838B832D
S11302609C83CA01B901A501940168D02B013C010A
S1130270C701B60124E630E040E050E05FD0CA0197
S1130280B901A50194015AD04B015C01C701B60123
S113029028EE33E040E050E051D0E981FA81E85F94
S11302A0FE4F8081E8E1F1E08083D201A85FBE4F78
S11302B08C918183D401A85FBE4F8C918283D90134
S11302C0A85FBE4F8C91838388EEC81683E0D8065E
S11302D0E104F10478F484E6C816D104E104F104DD
S11302E060F48AE0C816D104E104F10448F082E025
S11302F090E008C084E090E005C083E090E002C094
S113030081E090E0909301018093000188E191E005
S113031065DF88E191E00F900F900F900F90DF91CF
S1130320CF91FF90EF90DF90CF90BF90AF909F90D0
S11303308F907F906F905F904F900895A1E21A2E56
S1130340AA1BBB1BFD010DC0AA1FBB1FEE1FFF1F75
S1130350A217B307E407F50720F0A21BB30BE40BC5
S1130360F50B661F771F881F991F1A9469F760950C
S11303707095809590959B01AC01BD01CF010895C6
S1070380F894FFCF1B
S113038404000100350032003F065B4F666D7D2793
S10703947F6700007B
S9030000FC
