:1000000045C0000060C000005EC000005CC0000091
:100010005AC0000058C0000056C0000054C0000084
:1000200052C0000050C000004EC000004CC0000094
:100030004AC0000048C0000046C0000044C00000A4
:1000400042C0000040C000003EC000003CC00000B4
:100050003AC0000038C0000036C0000034C00000C4
:1000600032C0000030C000002EC000002CC00000D4
:100070002AC0000028C0000026C0000024C00000E4
:1000800022C0000020C000001EC0000011241FBEBE
:10009000CFEFD0E1DEBFCDBF11E0A0E0B1E0E2E8FC
:1000A000F2E000E00BBF02C007900D92A231B10751
:1000B000D9F721E0A2E1B1E001C01D92A731B2075A
:1000C000E1F797D0DCC09CCF25B32F6025BB25B3CB
:1000D00043E050E0481B590B81E090E002C0880FDC
:1000E000991F4A95E2F78095822385BB62BB81EE1A
:1000F00094E00197F1F700C0000008950F931F935B
:10010000CF93DF938C01C0E0D0E007C0F801EC0F83
:10011000FD1F6081CE01D8DF2196C430D105B4F334
:10012000DF91CF911F910F9108950F931F93CF935C
:10013000DB01AF70BB278B019C01689413F83695E7
:100140002795179507951694D1F7F801EF70FF27BB
:10015000072F182F292F3327A8014F7055278B0100
:100160009C010F2EFCE03695279517950795FA957B
:10017000D1F7F02D98016115C0E17C07810591054B
:10018000C8F46F3F71058105910509F050F46031A5
:1001900071058105910540F021E130E041E150E039
:1001A00009C021E130E006C021E130E041E150E04A
:1001B000E1E1F0E0A050BF4F8C91A2E1B1E08C935F
:1001C000E050FF4F808111968C931197FA01E05017
:1001D000FF4F808112968C931297F901E050FF4FE8
:1001E000808113968C931397CD01CF911F910F911E
:1001F00008958FEF81BB8FE084BBC0E0D0E0C12CBD
:10020000D12C7601B0990FC08FE493EC0197F1F7F0
:1002100000C000002196C330D1052CF0C0E0D0E032
:10022000C12CD12C7601C130D10581F0C230D1056D
:1002300009F1209739F780911001E2E1F1E0808324
:10024000818382838383CF0159DFDCCF460157014D
:100250009FEF891A990AA90AB90AC701B60165DF91
:100260004DDF81EE94E00197F1F700C000007501C9
:100270006401C8CFC701B60158DF40DFC3CFF8948F
:02028000FFCFAE
:100282003F065B4F666D7D277F67777C585E79718D
:0202920040002A
:00000001FF
